:020000040800F2
:1000000000500020D9060008750600087D0600088B
:10001000850600088D06000895060008000000000F
:100020000000000000000000000000009D06000825
:10003000A906000800000000B5060008C106000877
:1000400021070008210700082107000821070008F0
:1000500021070008210700082107000821070008E0
:1000600021070008210700082107000821070008D0
:1000700021070008210700082107000821070008C0
:1000800021070008210700082107000821070008B0
:1000900021070008210700082107000821070008A0
:1000A0002107000821070008210700082107000890
:1000B0002107000821070008210700082107000880
:1000C0002107000821070008210700082107000870
:1000D0002107000821070008210700082107000860
:1000E0002107000821070008210700080000000080
:1000F0000000000000000000000000000000000000
:0C01000000000000000000005FF808F1A3
:10010C0010B5054C237833B9044B13B10448AFF345
:10011C0000800123237010BD0C00002000000000A3
:10012C009C1F000808B5034B1BB103490348AFF3F0
:10013C00008008BD00000000100000209C1F00087B
:10014C0080B500AF00F0E8FA00F07AF800F03CF966
:10015C0000F0BCF800F00EF92E4800F027FD4FF42B
:10016C007A730C222C492D4801F066FD2C4B2D4A3C
:10017C000021284800F05EFD294B9B78002B12D102
:10018C004FF47A7307222849244801F055FD0022C8
:10019C004FF40051254801F0D7F8002201212448E2
:1001AC0001F0D2F81DE01E4B9B78012B12D14FF4BD
:1001BC007A7305221F49194801F03EFD01224FF4C4
:1001CC0000511A4801F0C0F801220121184801F031
:1001DC00BBF806E04FF47A73052217490F4801F07B
:1001EC002BFD104B1B68154A13600E4B5B68134AB2
:1001FC0053600C4B9B68114A93600A4BDB680F4AA7
:10020C00D360084B1B690D4A13614FF47A7000F0F0
:10021C00E5FAABE728000020B41F000850000020CE
:10022C00B400002098000020C41F000800100140FA
:10023C0000080140CC1F0008D41F0008BC0000209F
:10024C0080B590B000AF07F11803282200211846A2
:10025C0001F072FE3B1D00221A605A609A60DA604F
:10026C001A610123BB614FF48033FB6100233B62B5
:10027C000123BB6202237B634FF48033BB634FF4D7
:10028C00E013FB6307F11803184601F075F80346F9
:10029C00002B01D000F004F90F237B600223BB601C
:1002AC000023FB604FF480633B6100237B613B1DAB
:1002BC000221184601F0E2FA0346002B01D000F0AF
:1002CC00EFF800BF4037BD4680BD000080B58AB056
:1002DC0000AF254B254A1A60234B12225A60224B41
:1002EC0000229A60204B0022DA601F4B4FF48032C0
:1002FC001A611D4B00225A611B4B00221A761A4BB5
:10030C0000225A76184B00229A76174B0022DA7686
:10031C00154B00221A77144B00225A77124800F022
:10032C0081FA0346002B01D000F0BAF801233B629E
:10033C000D237B6100233B6120233B6000237B600A
:10034C000B4BBB604FF6FF73FB600023BB610123BB
:10035C00FB6100237B623B461946034800F05DFBC2
:10036C0000BF2837BD4680BD280000200064004037
:10037C00E0FF1F0080B500AF114B124A1A60104B02
:10038C004FF4E1325A600E4B00229A600C4B002263
:10039C00DA600B4B00221A61094B0C225A61084B94
:1003AC0000229A61064B0022DA61054801F0F4FB49
:1003BC000346002B01D000F073F800BF80BD00BFD6
:1003CC00500000200038014080B588B000AF07F124
:1003DC00100300221A605A609A60DA602D4B9B69F8
:1003EC002C4A43F0100393612A4B9B6903F01003D2
:1003FC00FB60FB68274B9B69264A43F02003936103
:10040C00244B9B6903F02003BB60BB68214B9B69A9
:10041C00204A43F0040393611E4B9B6903F00403D1
:10042C007B607B681B4B9B691A4A43F00803936102
:10043C00184B9B6903F008033B603B6800224FF4A8
:10044C000051154800F080FF00220121134800F0F4
:10045C007BFF4FF400533B6101237B610023BB61A5
:10046C000223FB6107F1100319460B4800F0E8FD6D
:10047C0001233B6101237B610023BB610223FB61F0
:10048C0007F110031946054800F0DAFD00BF2037CC
:10049C00BD4680BD00100240001001400008014024
:1004AC0080B400AF72B600BF00BFFDE780B485B06A
:1004BC0000AF154B9B69144A43F001039361124B37
:1004CC009B6903F00103BB60BB680F4BDB690E4AF1
:1004DC0043F08053D3610C4BDB6903F080537B609A
:1004EC007B680A4B5B68FB60FB6823F0E063FB6096
:1004FC00FB6843F00073FB60044AFB68536000BF69
:10050C001437BD4680BC704700100240000001400B
:10051C0080B58AB000AF786007F1140300221A602E
:10052C005A609A60DA607B681B68254A934243D113
:10053C00244BDB69234A43F00073D361214BDB6905
:10054C0003F000733B613B691E4B9B691D4A43F0F2
:10055C00080393611B4B9B6903F00803FB60FB686A
:10056C004FF480737B610023BB610023FB6107F1B7
:10057C0014031946144800F063FD4FF400737B61BB
:10058C000223BB6103233B6207F1140319460E4897
:10059C0000F056FD0D4B5B687B627B6A23F4C04315
:1005AC007B627B6A43F0E0637B627B6A43F480434B
:1005BC007B62064A7B6A536000BF2837BD4680BD0C
:1005CC000064004000100240000C0140000001409B
:1005DC0080B588B000AF786007F1100300221A6074
:1005EC005A609A60DA607B681B681C4A934231D16E
:1005FC001B4B9B691A4A43F480439361184B9B69CC
:10060C0003F48043FB60FB68154B9B69144A43F071
:10061C0004039361124B9B6903F00403BB60BB683A
:10062C004FF400733B6102237B610323FB6107F1F1
:10063C00100319460B4800F003FD4FF480633B6137
:10064C0000237B610023BB6107F1100319460548A9
:10065C0000F0F6FC00BF2037BD4680BD00380140DD
:10066C00001002400008014080B400AF00BFFDE75D
:10067C0080B400AF00BFFDE780B400AF00BFFDE762
:10068C0080B400AF00BFFDE780B400AF00BFFDE752
:10069C0080B400AF00BFBD4680BC704780B400AFD3
:1006AC0000BFBD4680BC704780B400AF00BFBD46E4
:1006BC0080BC704780B500AF00F074F800BF80BDFF
:1006CC0080B400AF00BFBD4680BC7047FFF7F8FF99
:1006DC000B480C490C4A002302E0D458C450043394
:1006EC00C4188C42F9D3094A094C002301E0136069
:1006FC000432A242FBD301F027FCFFF721FD704727
:10070C00000000200C000020142000080C00002029
:10071C00D4000020FEE7000080B500AF084B1B683A
:10072C00074A43F010031360032000F055FC0F2020
:10073C0000F008F8FFF7BAFE0023184680BD00BF92
:10074C000020024080B582B000AF7860124B1A686E
:10075C00124B1B7819464FF47A73B3FBF1F3B2FBCF
:10076C00F3F3184600F05FFC0346002B01D0012385
:10077C000EE07B680F2B0AD8002279684FF0FF300F
:10078C0000F035FC064A7B681360002300E001236F
:10079C0018460837BD4680BD000000200800002028
:1007AC000400002080B400AF054B1B781A46054BA3
:1007BC001B681344034A136000BFBD4680BC7047DE
:1007CC0008000020D000002080B400AF024B1B6852
:1007DC001846BD4680BC7047D000002080B584B060
:1007EC0000AF7860FFF7F0FFB8607B68FB60FB68D8
:1007FC00B3F1FF3F05D00A4B1B781A46FB68134434
:10080C00FB6000BFFFF7E0FF0246BB68D31AFA6833
:10081C009A42F7D800BF00BF1037BD4680BD00BF5D
:10082C000800002080B584B000AF78607B68002B96
:10083C0001D10123EDE07B6893F82030DBB2002B73
:10084C0002D17868FFF764FE7B681B681A687B68C6
:10085C001B6842F001021A60FFF7B6FFF86012E065
:10086C00FFF7B2FF0246FB68D31A0A2B0BD97B6841
:10087C005B6A43F400327B685A627B68052283F81A
:10088C0020200123C5E07B681B685B6803F0010333
:10089C00002BE5D07B681B681A687B681B6822F00C
:1008AC0002021A60FFF790FFF86012E0FFF78CFF6E
:1008BC000246FB68D31A0A2B0BD97B685B6A43F49C
:1008CC0000327B685A627B68052283F82020012362
:1008DC009FE07B681B685B6803F00203002BE5D18B
:1008EC007B681B7E012B08D17B681B681A687B68B0
:1008FC001B6842F080021A6007E07B681B681A686C
:10090C007B681B6822F080021A607B685B7E012B7F
:10091C0008D17B681B681A687B681B6842F0400230
:10092C001A6007E07B681B681A687B681B6822F0FA
:10093C0040021A607B689B7E012B08D17B681B6888
:10094C001A687B681B6842F020021A6007E07B681B
:10095C001B681A687B681B6822F020021A607B688F
:10096C00DB7E012B08D17B681B681A687B681B68CF
:10097C0022F010021A6007E07B681B681A687B681B
:10098C001B6842F010021A607B681B7F012B08D198
:10099C007B681B681A687B681B6842F008021A6047
:1009AC0007E07B681B681A687B681B6822F00802EA
:1009BC001A607B685B7F012B08D17B681B681A6807
:1009CC007B681B6842F004021A6007E07B681B68B6
:1009DC001A687B681B6822F004021A607B689A68AC
:1009EC007B68DB681A437B681B691A437B685B690D
:1009FC0042EA03017B685B685A1E7B681B680A43EA
:100A0C00DA617B6800225A627B68012283F820201D
:100A1C00002318461037BD4680BD80B487B000AFA8
:100A2C00786039607B681B687B617B6893F8203049
:100A3C00FB74FB7C012B03D0FB7C022B40F0AA80C7
:100A4C007B69D3F8003243F001027B69C3F80022C2
:100A5C003B685B6903F01F03012202FA03F3FB609E
:100A6C007B69D3F81C22FB68DB431A407B69C3F813
:100A7C001C223B68DB69002B23D17B69D3F80C2249
:100A8C00FB68DB431A407B69C3F80C223B68DB68CC
:100A9C0019043B685B689BB23A68526919437B69DD
:100AAC00483243F832103B689B6819043B681B685A
:100ABC009AB23B685B690A4379694833DB000B44A3
:100ACC005A603B68DB69012B22D17B69D3F80C227D
:100ADC00FB681A437B69C3F80C223B681B6819043A
:100AEC003B685B689BB23A68526919437B69483230
:100AFC0043F832103B689B6819043B68DB689AB278
:100B0C003B685B690A4379694833DB000B445A60E4
:100B1C003B689B69002B09D17B69D3F80422FB68E5
:100B2C00DB431A407B69C3F8042207E07B69D3F8E6
:100B3C000422FB681A437B69C3F804223B681B69D7
:100B4C00002B09D17B69D3F81422FB68DB431A40D4
:100B5C007B69C3F8142207E07B69D3F81422FB6885
:100B6C001A437B69C3F814223B681B6A012B07D11B
:100B7C007B69D3F81C22FB681A437B69C3F81C22DF
:100B8C007B69D3F8003223F001027B69C3F80022A1
:100B9C00002306E07B685B6A43F480227B685A6220
:100BAC00012318461C37BD4680BC704780B584B005
:100BBC0000AF78607B6893F82030DBB2012B2ED12C
:100BCC007B68022283F820207B681B681A687B688C
:100BDC001B6822F001021A60FFF7F6FDF86012E0C4
:100BEC00FFF7F2FD0246FB68D31A0A2B0BD97B6880
:100BFC005B6A43F400327B685A627B68052283F897
:100C0C002020012312E07B681B685B6803F0010362
:100C1C00002BE5D17B6800225A62002306E07B683A
:100C2C005B6A43F400227B685A6201231846103732
:100C3C00BD4680BD80B487B000AFF860B9607A6003
:100C4C003B60FB6893F82030FB75FB7D012B03D0D8
:100C5C00FB7D022B40F00381BB68002B0ED1FB689F
:100C6C001B68DB6803F00303002B16D1FB685B6A7F
:100C7C0043F40012FB685A620123F7E0FB681B681F
:100C8C001B6903F00303002B07D1FB685B6A43F479
:100C9C000012FB685A620123E8E0FB681A68BB6823
:100CAC001B331B0113441B6803F004027B689A601E
:100CBC007B689B68002B0CD1FB681A68BB681B33E4
:100CCC001B0113441B685B0DC3F30A027B681A609B
:100CDC000BE0FB681A68BB681B331B0113441B68D1
:100CEC00DB0823F060427B685A60FB681A68BB68BB
:100CFC001B331B0113441B6803F002027B68DA6090
:100D0C00FB681A68BB681B331B01134404331B6854
:100D1C0003F00803002B03D07B6808221A610BE058
:100D2C00FB681A68BB681B331B01134404331B6834
:100D3C0003F00F027B681A61FB681A68BB681B33EF
:100D4C001B01134404331B681B0ADAB27B689A61DB
:100D5C00FB681A68BB681B331B01134404331B6804
:100D6C001B0C9AB27B685A61FB681A68BB681B0142
:100D7C00134403F5DC731B68DAB23B681A70FB682A
:100D8C001A68BB681B01134403F5DC731B681A0A51
:100D9C003B680133D2B21A70FB681A68BB681B013E
:100DAC00134403F5DC731B681A0C3B680233D2B294
:100DBC001A70FB681A68BB681B01134403F5DC73DB
:100DCC001B681A0E3B680333D2B21A70FB681A68A0
:100DDC00BB681B01134403F5DE731A683B680433CC
:100DEC00D2B21A70FB681A68BB681B01134403F576
:100DFC00DE731B681A0A3B680533D2B21A70FB68A3
:100E0C001A68BB681B01134403F5DE731B681A0CCC
:100E1C003B680633D2B21A70FB681A68BB681B01B8
:100E2C00134403F5DE731B681A0E3B680733D2B20A
:100E3C001A70BB68002B08D1FB681B68DA68FB686A
:100E4C001B6842F02002DA6007E0FB681B681A6935
:100E5C00FB681B6842F020021A61002306E0FB6865
:100E6C005B6A43F48022FB685A62012318461C37E4
:100E7C00BD4680BC7047000080B485B000AF786080
:100E8C007B6803F00703FB600C4BDB68BB60BA6844
:100E9C004FF6FF031340BB60FB681A02BB68134399
:100EAC0043F0BF6343F40033BB60044ABB68D360B8
:100EBC0000BF1437BD4680BC704700BF00ED00E09A
:100ECC0080B400AF044BDB681B0A03F00703184621
:100EDC00BD4680BC704700BF00ED00E080B483B01D
:100EEC0000AF03463960FB7197F90730002B0ADB22
:100EFC003B68DAB20C4997F907301201D2B20B44B5
:100F0C0083F800230AE03B68DAB20849FB7903F066
:100F1C000F03043B1201D2B20B441A7600BF0C37FC
:100F2C00BD4680BC704700BF00E100E000ED00E072
:100F3C0080B489B000AFF860B9607A60FB6803F0E8
:100F4C000703FB61FB69C3F10703042B28BF0423D0
:100F5C00BB61FB690433062B02D9FB69033B00E040
:100F6C0000237B614FF0FF32BB6902FA03F3DA43D3
:100F7C00BB681A407B699A404FF0FF317B6901FADC
:100F8C0003F3D9437B680B40134318462437BD4603
:100F9C0080BC704780B582B000AF78607B68013B45
:100FAC00B3F1807F01D301230FE00A4A7B68013B38
:100FBC0053600F214FF0FF30FFF790FF054B0022DD
:100FCC009A60044B07221A60002318460837BD4666
:100FDC0080BD00BF10E000E080B582B000AF78604B
:100FEC007868FFF749FF00BF0837BD4680BD80B564
:100FFC0086B000AF0346B9607A60FB7300237B6157
:10100C00FFF75EFF78617A68B9687869FFF790FF3F
:10101C00024697F90F3011461846FFF75FFF00BFE5
:10102C001837BD4680BD80B582B000AF7860786857
:10103C00FFF7B0FF034618460837BD4680BD0000D9
:10104C0080B48BB000AF7860396000237B620023E2
:10105C003B6269E101227B6A02FA03F3FB613B68A4
:10106C001B68FA691340BB61BA69FB699A4240F08C
:10107C0058813B685B689A4A93425ED0984A934287
:10108C0075D8984A934258D0964A93426FD8964A4C
:10109C00934252D0944A934269D8944A93424CD08A
:1010AC00924A934263D8924A934246D0904A9342D2
:1010BC005DD8122B2AD8122B59D801A252F823F042
:1010CC0047110008211100083311000875110008A0
:1010DC007B1100087B1100087B1100087B110008B4
:1010EC007B1100087B1100087B1100087B110008A4
:1010FC007B1100087B1100087B1100087B11000894
:10110C007B110008291100083D110008794A93420F
:10111C0013D02CE03B68DB683B6229E03B68DB6862
:10112C0004333B6224E03B68DB6808333B621FE01E
:10113C003B68DB680C333B621AE03B689B68002B16
:10114C0002D104233B6213E03B689B68012B05D161
:10115C0008233B627B68FA691A6109E008233B6249
:10116C007B68FA695A6103E000233B6200E000BF30
:10117C00BB69FF2B01D87B6801E07B6804337B6182
:10118C00BB69FF2B02D87B6A9B0002E07B6A083BA1
:10119C009B003B617B691A680F213B6901FA03F3E1
:1011AC00DB431A40396A3B6901FA03F31A437B6942
:1011BC001A603B685B6803F08053002B00F0B18031
:1011CC004D4B9B694C4A43F0010393614A4B9B691D
:1011DC0003F00103BB60BB68484A7B6A9B0802337F
:1011EC0052F82330FB607B6A03F003039B000F2251
:1011FC0002FA03F3DB43FA681340FB607B68404A56
:10120C00934213D07B683F4A93420DD07B683E4A91
:10121C00934207D07B683D4A934201D1032306E0F9
:10122C00042304E0022302E0012300E000237A6A95
:10123C0002F0030292009340FA681343FB602F49BB
:10124C007B6A9B080233FA6841F823203B685B6891
:10125C0003F48013002B06D02D4B9A682C49BB69E4
:10126C0013438B6006E02A4B9A68BB69DB43284921
:10127C0013408B603B685B6803F40013002B06D0B3
:10128C00234BDA682249BB691343CB6006E0204B41
:10129C00DA68BB69DB431E491340CB603B685B6873
:1012AC0003F40033002B06D0194B5A681849BB695C
:1012BC0013434B6006E0164B5A68BB69DB43144979
:1012CC0013404B603B685B6803F48033002B21D0E8
:1012DC000F4B1A680E49BB6913430B6021E000BF2A
:1012EC00000032100000311000002210000021100C
:1012FC00000012100000111000100240000001400C
:10130C0000080140000C0140001001400014014095
:10131C00000401400B4B1A68BB69DB4309491340BD
:10132C000B607B6A01337B623B681A687B6A22FA2A
:10133C0003F3002B7FF48EAE00BF00BF2C37BD46ED
:10134C0080BC70470004014080B483B000AF78606B
:10135C000B467B8013467B707B78002B03D07A88FE
:10136C007B681A6103E07B881A047B681A6100BFF2
:10137C000C37BD4680BC704780B586B000AF786036
:10138C007B68002B01D1012372E27B681B6803F0A0
:10139C000103002B00F08780924B5B6803F00C0379
:1013AC00042B0CD08F4B5B6803F00C03082B12D171
:1013BC008C4B5B6803F48033B3F5803F0BD1894BC6
:1013CC001B6803F40033002B6CD07B685B68002B2C
:1013DC0068D101234CE27B685B68B3F5803F06D192
:1013EC00804B1B687F4A43F4803313602EE07B688C
:1013FC005B68002B0CD17B4B1B687A4A23F480333F
:10140C001360784B1B68774A23F4802313601DE02C
:10141C007B685B68B3F5A02F0CD1724B1B68714ACB
:10142C0043F4802313606F4B1B686E4A43F4803384
:10143C0013600BE06B4B1B686A4A23F48033136018
:10144C00684B1B68674A23F4802313607B685B68D6
:10145C00002B13D0FFF7B8F9386108E0FFF7B4F9A7
:10146C0002463B69D31A642B01D9032300E25D4B7E
:10147C001B6803F40033002BF0D014E0FFF7A4F941
:10148C00386108E0FFF7A0F902463B69D31A642BD8
:10149C0001D90323ECE1534B1B6803F40033002BFD
:1014AC00F0D100E000BF7B681B6803F00203002B47
:1014BC0063D04C4B5B6803F00C03002B0BD0494BF7
:1014CC005B6803F00C03082B1CD1464B5B6803F4E0
:1014DC008033002B16D1434B1B6803F00203002B07
:1014EC0005D07B681B69012B01D00123C0E13D4B6A
:1014FC001B6823F0F8027B685B69DB0039491343F6
:10150C000B603AE07B681B69002B20D0364B012224
:10151C001A60FFF759F9386108E0FFF755F90246F0
:10152C003B69D31A022B01D90323A1E12D4B1B6874
:10153C0003F00203002BF0D02A4B1B6823F0F802B7
:10154C007B685B69DB00274913430B6015E0264B76
:10155C0000221A60FFF738F9386108E0FFF734F918
:10156C0002463B69D31A022B01D9032380E11D4BA0
:10157C001B6803F00203002BF0D17B681B6803F09F
:10158C000803002B3AD07B689B69002B19D0174BB2
:10159C0001221A60FFF718F9386108E0FFF714F917
:1015AC0002463B69D31A022B01D9032360E10D4B90
:1015BC005B6A03F00203002BF0D0012000F0CEFA9E
:1015CC001CE00A4B00221A60FFF7FEF838610FE0AE
:1015DC00FFF7FAF802463B69D31A022B08D903230A
:1015EC0046E100BF0010024000004242800442422B
:1015FC00924B5B6A03F00203002BE9D17B681B68FA
:10160C0003F00403002B00F0A6800023FB758B4B2A
:10161C00DB6903F08053002B0DD1884BDB69874AC3
:10162C0043F08053D361854BDB6903F08053BB607F
:10163C00BB680123FB75824B1B6803F48073002B82
:10164C0018D17F4B1B687E4A43F480731360FFF7FD
:10165C00BBF8386108E0FFF7B7F802463B69D31ACC
:10166C00642B01D9032303E1754B1B6803F48073CE
:10167C00002BF0D07B68DB68012B06D16F4B1B6A0B
:10168C006E4A43F0010313622DE07B68DB68002B8C
:10169C000CD16A4B1B6A694A23F001031362674B36
:1016AC001B6A664A23F0040313621CE07B68DB6848
:1016BC00052B0CD1614B1B6A604A43F00403136287
:1016CC005E4B1B6A5D4A43F0010313620BE05B4BFC
:1016DC001B6A5A4A23F001031362584B1B6A574A80
:1016EC0023F0040313627B68DB68002B15D0FFF733
:1016FC006BF838610AE0FFF767F802463B69D31ACA
:10170C0041F28832934201D90323B1E04B4B1B6A5F
:10171C0003F00203002BEED014E0FFF755F838610C
:10172C000AE0FFF751F802463B69D31A41F28832BE
:10173C00934201D903239BE0404B1B6A03F0020345
:10174C00002BEED1FB7D012B05D13C4BDB693B4AD9
:10175C0023F08053D3617B68DB69002B00F087801A
:10176C00364B5B6803F00C03082B61D07B68DB699C
:10177C00022B46D1334B00221A60FFF725F8386153
:10178C0008E0FFF721F802463B69D31A022B01D976
:10179C0003236DE0294B1B6803F00073002BF0D181
:1017AC007B681B6AB3F5803F08D1244B5B6823F43C
:1017BC0000327B689B68214913434B601F4B5B686D
:1017CC0023F474127B68196A7B685B6A0B431B49B0
:1017DC0013434B601B4B01221A60FEF7F5FF386177
:1017EC0008E0FEF7F1FF02463B69D31A022B01D940
:1017FC0003233DE0114B1B6803F00073002BF0D06A
:10180C0035E0104B00221A60FEF7DEFF386108E06D
:10181C00FEF7DAFF02463B69D31A022B01D90323E8
:10182C0026E0064B1B6803F00073002BF0D11EE082
:10183C007B68DB69012B07D1012319E00010024002
:10184C0000700040600042420B4B5B68FB60FB6821
:10185C0003F480327B681B6A9A4206D1FB6803F45E
:10186C0070127B685B6A9A4201D0012300E000236E
:10187C0018461837BD4680BD0010024080B584B0B4
:10188C0000AF786039607B68002B01D10123D0E078
:10189C006A4B1B6803F007033A689A4210D9674BEE
:1018AC001B6823F0070265493B6813430B60634BCD
:1018BC001B6803F007033A689A4201D00123B8E091
:1018CC007B681B6803F00203002B20D07B681B682D
:1018DC0003F00403002B05D0594B5B68584A43F4C2
:1018EC00E06353607B681B6803F00803002B05D092
:1018FC00534B5B68524A43F460535360504B5B68E4
:10190C0023F0F0027B689B684D4913434B607B6866
:10191C001B6803F00103002B40D07B685B68012B34
:10192C0007D1474B1B6803F40033002B15D101235F
:10193C007FE07B685B68022B07D1414B1B6803F08F
:10194C000073002B09D1012373E03D4B1B6803F09E
:10195C000203002B01D101236BE0394B5B6823F0B0
:10196C0003027B685B68364913434B60FEF72CFF20
:10197C00F8600AE0FEF728FF0246FB68D31A41F232
:10198C008832934201D9032353E02D4B5B6803F05B
:10199C000C027B685B689B009A42EBD1274B1B685F
:1019AC0003F007033A689A4210D2244B1B6823F0C9
:1019BC00070222493B6813430B60204B1B6803F062
:1019CC0007033A689A4201D0012332E07B681B6816
:1019DC0003F00403002B08D0194B5B6823F4E0627E
:1019EC007B68DB68164913434B607B681B6803F00C
:1019FC000803002B09D0124B5B6823F460527B6800
:101A0C001B69DB000E4913434B6000F021F80246C2
:101A1C000B4B5B681B0903F00F030A49CB5C22FAE2
:101A2C0003F3094A1360094B1B681846FEF78AFE3C
:101A3C00002318461037BD4680BD00BF0020024071
:101A4C0000100240E01F00080000002004000020ED
:101A5C0080B487B000AF0023FB600023BB60002381
:101A6C007B6100237B6000233B611E4B5B68FB604A
:101A7C00FB6803F00C03042B02D0082B03D027E0E7
:101A8C00194B3B6127E0FB689B0C03F00F03174AD3
:101A9C00D35C7B60FB6803F48033002B10D0114BBC
:101AAC005B685B0C03F00103114AD35CBB607B6881
:101ABC000D4A03FB02F2BB68B2FBF3F37B6104E05B
:101ACC007B680C4A02FB03F37B617B693B6102E0A0
:101ADC00054B3B6100BF3B6918461C37BD4680BCBB
:101AEC00704700BF0010024000127A00F81F000877
:101AFC000820000800093D0080B400AF024B1B68B1
:101B0C001846BD4680BC70470000002080B500AF71
:101B1C00FFF7F2FF0246054B5B681B0A03F0070355
:101B2C000349CB5C22FA03F3184680BD0010024037
:101B3C00F01F000880B500AFFFF7DEFF0246054B33
:101B4C005B68DB0A03F007030349CB5C22FA03F35F
:101B5C00184680BD00100240F01F000880B485B00C
:101B6C0000AF78600A4B1B680A4AA2FB03235B0A8E
:101B7C007A6802FB03F3FB6000BFFB685A1EFA6035
:101B8C00002BF9D100BF00BF1437BD4680BC704795
:101B9C0000000020D34D621080B582B000AF786099
:101BAC007B68002B01D1012342E07B6893F8413024
:101BBC00DBB2002B06D17B68002283F840207868CA
:101BCC00FEF706FD7B68242283F841207B681B68A6
:101BDC00DA687B681B6822F40052DA60786800F0DF
:101BEC001DF97B681B681A697B681B6822F490429C
:101BFC001A617B681B685A697B681B6822F02A0291
:101C0C005A617B681B68DA687B681B6842F4005277
:101C1C00DA607B6800225A647B68202283F84120BA
:101C2C007B68202283F842207B6800225A630023C1
:101C3C0018460837BD4680BD80B58AB002AFF86043
:101C4C00B9603B601346FB8000237B61FB6893F813
:101C5C004130DBB2202B6DD1BB68002B02D0FB884E
:101C6C00002B01D1012366E0FB6800225A64FB685B
:101C7C00212283F84120FEF7A7FD7861FB68FA88E2
:101C8C009A84FB68FA88DA84FB689B68B3F5805FFA
:101C9C0008D1FB681B69002B04D10023FB61BB68D6
:101CAC00BB6103E0BB68FB610023BB612AE03B68BE
:101CBC0000937B6900228021F86800F040F803460D
:101CCC00002B01D0032336E0FB69002B0BD1BB6941
:101CDC001B881A46FB681B68C2F308025A60BB6972
:101CEC000233BB6107E0FB691A78FB681B685A601A
:101CFC00FB690133FB61FB68DB8C9BB2013B9AB245
:101D0C00FB68DA84FB68DB8C9BB2002BCFD13B6881
:101D1C0000937B6900224021F86800F010F803461C
:101D2C00002B01D0032306E0FB68202283F841201E
:101D3C00002300E0022318462037BD4680BD80B545
:101D4C0090B000AFF860B9603B601346FB7150E097
:101D5C00BB6CB3F1FF3F4CD0BB6C002B07D0FEF734
:101D6C0033FD02463B68D31ABA6C9A4241D2FB68E7
:101D7C001B680C33BB62BB6A53E8003F7B627B6A17
:101D8C0023F4D073FB63FB681B680C33FA6B7A6328
:101D9C003B63396B7A6B41E80023FB62FB6A002BD7
:101DAC00E5D1FB681B6814337B617B6953E8003F0A
:101DBC003B613B6923F00103BB63FB681B68143375
:101DCC00BA6B3A62FB61F9693A6A41E80023BB617C
:101DDC00BB69002BE5D1FB68202283F84120FB680E
:101DEC00202283F84220FB68002283F84020032342
:101DFC000FE0FB681B681A68BB681340BA689A420C
:101E0C000CBF01230023DBB21A46FB799A429FD008
:101E1C00002318464037BD4680BD000080B584B015
:101E2C0000AF78607B681B681B6923F440517B68AA
:101E3C00DA687B681B680A431A617B689A687B685E
:101E4C001B691A437B685B691343BB607B681B6827
:101E5C00DB6823F4B05323F00C037A681268B9687A
:101E6C000B43D3607B681B685B6923F440717B6810
:101E7C009A697B681B680A435A617B681B682C4A09
:101E8C00934203D1FFF756FEF86002E0FFF73EFEE7
:101E9C00F860FA6813469B0013449A001A447B6856
:101EAC005B689B00B2FBF3F3224AA2FB03235B09A2
:101EBC001901FA6813469B0013449A001A447B6874
:101ECC005B689B00B2FBF3F21A4BA3FB02035B09AA
:101EDC00642000FB03F3D31A1B013233154AA2FB17
:101EEC0003235B0903F0F0031944FA6813469B00C3
:101EFC0013449A001A447B685B689B00B2FBF3F2B4
:101F0C000C4BA3FB02035B09642000FB03F3D31A05
:101F1C001B013233074AA2FB03235B0903F00F02B8
:101F2C007B681B680A449A6000BF1037BD4680BDB1
:101F3C00003801401F85EB5103460244934200D107
:101F4C00704703F8011BF9E770B500260C4D0D4CDA
:101F5C00641BA410A64209D100F01AF800260A4D01
:101F6C000A4C641BA410A64205D170BD55F8043B65
:101F7C0098470136EEE755F8043B98470136F2E7EF
:101F8C000C2000080C2000080C2000081020000871
:101F9C00F8B500BFF8BC08BC9E467047F8B500BF4A
:081FAC00F8BC08BC9E4670471A
:101FB400554152542053544152544544200D0A0073
:101FC40052455345540D0A005345540D0A00000070
:101FD4004552524F52200D0A00000000000000003C
:101FE40000000000010203040607080900000000C5
:101FF4000102030402030405060708090A0B0C0D79
:082004000E0F10100102000094
:04200C003101000896
:042010000D010008B6
:0C2014000024F400100000000100000097
:04000005080006D910
:00000001FF
