:020000040800F2
:1000000000500020E9080008350800083D080008F5
:10001000450800084D0800085508000800000000C9
:100020000000000000000000000000005D08000863
:100030006908000800000000750800088108000831
:1000400031090008310900083109000831090008A8
:10005000310900083109000831090008B505000818
:10006000DD05000831090008310900088D08000885
:100070003109000831090008310900083109000878
:10008000310900083109000831090008A1080008F9
:10009000B5080008C908000831090008310900083E
:1000A0003109000831090008310900083109000848
:1000B0003109000831090008310900083109000838
:1000C0003109000831090008310900083109000828
:1000D0003109000831090008310900083109000818
:1000E000310900083109000831090008000000004A
:1000F0000000000000000000000000000000000000
:0C01000000000000000000005FF808F1A3
:10010C0010B5054C237833B9044B13B10448AFF345
:10011C0000800123237010BD0C00002000000000A3
:10012C008031000808B5034B1BB103490348AFF3FA
:10013C00008008BD00000000100000208031000885
:10014C0080B582B000AF7860074B084A0021786810
:10015C0001F012FB00224FF40051054802F0F6FAB0
:10016C0000BF0837BD4680BD5C0000204000002069
:10017C000010014080B500AF00F0D6FB00F056F83F
:10018C0000F066F900F046F900F0EAF800F0AAF881
:10019C001F4801F0DEF902211D4801F00EFC1D4B39
:1001AC0008221A611B4B00229A601A4B0022DA605B
:1001BC00184B01221A604FF47A7000F017FC4FF4C0
:1001CC000051154802F0DAFA00F0BAF9134B1A781C
:1001DC00134B5A70134B1A78114B9A70104B002218
:1001EC00DA700F4B00221A710D4B00225A710C4B16
:1001FC0000229A710A4B0022DA710B4B084A05490E
:10020C00034801F0EAF9C82000F0F0FB00BFD6E784
:10021C00FC00002028000020001001408400002079
:10022C0064000020850000206C00002080B594B094
:10023C0000AF07F1280328220021184602F06EFFB8
:10024C0007F1140300221A605A609A60DA601A618E
:10025C003B1D00221A605A609A60DA600123BB626F
:10026C004FF48033FB6200233B630123BB63022307
:10027C007B644FF48033BB644FF4C013FB6407F111
:10028C002803184602F0B6FA0346002B01D000F002
:10029C00B3F90F237B610223BB610023FB614FF495
:1002AC0080633B6200237B6207F114030221184632
:1002BC0002F022FD0346002B01D000F09DF9022331
:1002CC007B604FF40043FB603B1D184602F070FE50
:1002DC000346002B01D000F08FF900BF5037BD460C
:1002EC0080BD000080B584B000AF3B1D00221A60B9
:1002FC005A609A60184B194A1A60174B00229A6080
:10030C00154B01221A73144B00221A75124B4FF421
:10031C006022DA61104B00225A600F4B01221A61E5
:10032C000D4800F087FB0346002B01D000F064F968
:10033C0000237B600123BB600023FB603B1D19463F
:10034C00054800F049FD0346002B01D000F054F99C
:10035C0000BF1037BD4680BD88000020002401403E
:10036C0080B58AB000AF284B284A1A60264B102261
:10037C005A60254B00229A60234B0022DA60224BF4
:10038C004FF480321A61204B00225A611E4B00221E
:10039C001A761D4B00225A761B4B00229A761A4B6A
:1003AC000022DA76184B00221A77174B00225A7764
:1003BC00154800F00AFF0346002B01D000F01CF991
:1003CC0001233B6212237B6100233B614FF4DC432E
:1003DC003B6000237B600E4BBB604FF6FF73FB60F2
:1003EC000023BB610123FB6114237B623B4619464E
:1003FC00054800F0E5FF0346002B01D000F0FCF8A7
:10040C0000BF2837BD4680BDFC00002000640040C2
:10041C00E0FF1F0080B582B000AF0C4B5B690B4A4C
:10042C0043F001035361094B5B6903F001037B60EB
:10043C007B68002200210B2001F0DFFD0B2001F076
:10044C00F8FD00BF0837BD4680BD00BF001002405C
:10045C0080B588B000AF07F1100300221A605A6013
:10046C009A60DA60324B9B69314A43F01003936116
:10047C002F4B9B6903F01003FB60FB682C4B9B69B3
:10048C002B4A43F020039361294B9B6903F0200313
:10049C00BB60BB68264B9B69254A43F00403936100
:1004AC00234B9B6903F004037B607B68204B9B69A7
:1004BC001F4A43F0080393611D4B9B6903F008032B
:1004CC003B603B6800224FF400511A4802F03EF9A1
:1004DC004FF400533B6101237B610023BB6102237A
:1004EC00FB6107F110031946124801F0ABFF06231C
:1004FC003B61114B7B610223BB6107F11003194671
:10050C000E4801F09FFF00220021072001F075FD2D
:10051C00072001F08EFD00220021082001F06DFD66
:10052C00082001F086FD00BF2037BD4680BD00BF0E
:10053C0000100240001001400000111000080140A2
:10054C0080B500AF04221449144800F04BFB144B47
:10055C001B780133DAB2124B1A700F4B1B6840F642
:10056C00AC52934206D90C4B1B681B09DAB20D4BEB
:10057C001A700EE0084B1B68B3F5FA7F06D2064BD7
:10058C001B681B09DAB2074B1A7002E0054B80227C
:10059C001A7000BF80BD00BF7400002088000020CE
:1005AC00700000206400002080B500AF074B1B7862
:1005BC00002B03D1054B01221A7002E0034B0022E1
:1005CC001A70022002F0F4F800BF80BD84000020F5
:1005DC0080B500AF074B1B78002B03D1054B0122D4
:1005EC001A7002E0034B00221A70042002F0E0F8AB
:1005FC0000BF80BD8500002080B400AF72B600BF84
:10060C0000BFFDE780B485B000AF154B9B69144A61
:10061C0043F001039361124B9B6903F00103BB6030
:10062C00BB680F4BDB690E4A43F08053D3610C4B14
:10063C00DB6903F080537B607B680A4B5B68FB6073
:10064C00FB6823F0E063FB60FB6843F00073FB6026
:10065C00044AFB68536000BF1437BD4680BC70472A
:10066C00001002400000014080B588B000AF7860F7
:10067C0007F1100300221A605A609A60DA607B68F6
:10068C001B68284A934249D1274B9B69264A43F45D
:10069C0000739361244B9B6903F40073FB60FB684C
:1006AC00214B9B69204A43F0040393611E4B9B69C9
:1006BC0003F00403BB60BB6801233B6103237B6134
:1006CC0007F110031946194801F0BCFE184B194AE2
:1006DC001A60174B00225A60154B00229A60144B7B
:1006EC008022DA60124B4FF400721A61104B4FF4F7
:1006FC0000625A610E4B20229A610D4B0022DA6186
:10070C000B4801F0B1FC0346002B01D0FFF774FF3E
:10071C007B68074A1A62064A7B68536200BF20371F
:10072C00BD4680BD0024014000100240000801407D
:10073C00B80000200800024080B58AB000AF786095
:10074C0007F1140300221A605A609A60DA607B6821
:10075C001B68314A93425BD1304BDB692F4A43F023
:10076C000073D3612D4BDB6903F000733B613B6974
:10077C002A4B9B69294A43F008039361274B9B69D9
:10078C0003F00803FB60FB684FF480737B6100236C
:10079C00BB610023FB6107F114031946204801F0EB
:1007AC0051FE4FF400737B610223BB6103233B6258
:1007BC0007F1140319461A4801F044FE194B5B6803
:1007CC007B627B6A23F4C0437B627B6A43F0E06309
:1007DC007B627B6A43F480437B62124A7B6A536080
:1007EC0000220021132001F008FC132001F021FC51
:1007FC0000220021142001F000FC142001F019FC4F
:10080C0000220021152001F0F8FB152001F011FC4D
:10081C0000BF2837BD4680BD006400400010024078
:10082C00000C01400000014080B400AF00BFFDE7A8
:10083C0080B400AF00BFFDE780B400AF00BFFDE7A0
:10084C0080B400AF00BFFDE780B400AF00BFFDE790
:10085C0080B400AF00BFBD4680BC704780B400AF11
:10086C0000BFBD4680BC704780B400AF00BFBD4622
:10087C0080BC704780B500AF00F09CF800BF80BD15
:10088C0080B500AF024801F0A9FC00BF80BD00BFDD
:10089C00B800002080B500AF024801F0B3F800BFEB
:1008AC0080BD00BFFC00002080B500AF024801F005
:1008BC00A9F800BF80BD00BFFC00002080B500AFD0
:1008CC00024801F09FF800BF80BD00BFFC00002073
:1008DC0080B400AF00BFBD4680BC7047FFF7F8FF87
:1008EC000B480C490C4A002302E0D458C450043382
:1008FC00C4188C42F9D3094A094C002301E0136057
:10090C000432A242FBD302F011FCFFF733FC704718
:10091C00000000200C000020C43100080C00002056
:10092C0028010020FEE7000080B500AF084B1B68D3
:10093C00074A43F010031360032001F053FB0F2010
:10094C0000F008F8FFF75EFE0023184680BD00BFDC
:10095C000020024080B582B000AF7860124B1A685C
:10096C00124B1B7819464FF47A73B3FBF1F3B2FBBD
:10097C00F3F3184601F06BFB0346002B01D0012367
:10098C000EE07B680F2B0AD8002279684FF0FF30FD
:10099C0001F033FB064A7B681360002300E001235F
:1009AC0018460837BD4680BD000000200800002016
:1009BC000400002080B400AF054B1B781A46054B91
:1009CC001B681344034A136000BFBD4680BC7047CC
:1009DC00080000202401002080B400AF024B1B68EB
:1009EC001846BD4680BC70472401002080B584B0F9
:1009FC0000AF7860FFF7F0FFB8607B68FB60FB68C6
:100A0C00B3F1FF3F05D00A4B1B781A46FB68134421
:100A1C00FB6000BFFFF7E0FF0246BB68D31AFA6821
:100A2C009A42F7D800BF00BF1037BD4680BD00BF4B
:100A3C000800002080B586B000AF78600023FB75FD
:100A4C0000233B610023BB600023FB607B68002B11
:100A5C0001D10123BEE07B689B68002B7B689B6AFD
:100A6C00002B09D17B680022DA627B68002283F8B4
:100A7C0024207868FFF7F8FD786800F0FFFA034649
:100A8C00FB757B689B6A03F01003002B40F0998088
:100A9C00FB7D002B40F095807B689B6A23F4885388
:100AAC0023F0020343F002027B689A627B685A6867
:100ABC007B68DB691A437B681B7B5B001343BA685A
:100ACC001343BB607B689B68B3F5807F03D07B6866
:100ADC009B68012B02D14FF4807300E000233A692C
:100AEC0013433B617B681B7D012B19D17B681B7BFE
:100AFC00002B09D17B689B69013B5A033B6913436B
:100B0C0043F400633B610BE07B689B6A43F020027B
:100B1C007B689A627B68DB6A43F001027B68DA626D
:100B2C007B681B685B6823F469417B681B683A69C6
:100B3C000A435A607B681B689A68284B13407A6892
:100B4C001268B9680B4393607B689B68B3F5807F30
:100B5C0003D07B689B68012B04D17B681B69013B2C
:100B6C001B05FB607B681B68DB6A23F470017B68E8
:100B7C001B68FA680A43DA627B681B689A68184B30
:100B8C001340BA689A420BD17B680022DA627B6808
:100B9C009B6A23F0030343F001027B689A6218E01E
:100BAC007B689B6A23F0120343F010027B689A6205
:100BBC007B68DB6A43F001027B68DA620123FB7518
:100BCC0007E07B689B6A43F010027B689A62012302
:100BDC00FB75FB7D18461837BD4680BDFDF7E1FF60
:100BEC00FE0E1FFF80B586B000AFF860B9607A606A
:100BFC000023FB75FB681B68644A934204D0FB68B6
:100C0C001B68634A934206D1604B5B6803F4702304
:100C1C00002B40F0B380FB6893F82430012B01D1FA
:100C2C000223AEE0FB68012283F82420F86800F070
:100C3C00CBF90346FB75FB7D002B40F09A80FB68DB
:100C4C009B6A23F4706323F0010343F48072FB6806
:100C5C009A62FB681B684E4A934205D14B4B5B680A
:100C6C0003F47023002B15D1FB689B6A23F48012CC
:100C7C00FB689A62FB681B685B6803F48063002B5B
:100C8C0026D0FB689B6A23F4405343F48052FB68E4
:100C9C009A621DE0FB689B6A43F48012FB689A62BF
:100CAC00FB681B68394A934204D0FB681B68384ABE
:100CBC0093420DD1354B5B6803F48063002B07D056
:100CCC00FB689B6A23F4405343F48052FB689A629E
:100CDC00FB689B6A03F48053002B06D0FB68DB6A2D
:100CEC0023F00602FB68DA6202E0FB680022DA629B
:100CFC00FB68002283F82420FB681B6A254A9A6251
:100D0C00FB681B6A244ADA62FB681B6A234A1A6373
:100D1C00FB681B686FF002021A60FB681B689A681C
:100D2C00FB681B6842F480729A60FB68186AFB6867
:100D3C001B684C331946BA687B6801F0EFF9FB6805
:100D4C001B689B6803F46023B3F5602F08D1FB6824
:100D5C001B689A68FB681B6842F4A0029A600FE05B
:100D6C00FB681B689A68FB681B6842F480129A60E7
:100D7C0006E0FB68002283F8242001E00123FB75C8
:100D8C00FB7D18461837BD4680BD00BF00240140CE
:100D9C00002801400B11000887110008A31100085E
:100DAC0080B483B000AF786000BF0C37BD4680BC08
:100DBC00704780B483B000AF786000BF0C37BD467D
:100DCC0080BC704780B483B000AF786000BF0C3734
:100DDC00BD4680BC7047000080B485B000AF786021
:100DEC0039600023FB730023BB607B6893F82430CD
:100DFC00012B01D10223DCE07B68012283F8242043
:100E0C003B685B68062B1CD87B681B68596B3B687E
:100E1C005A6813469B001344053B1F2202FA03F346
:100E2C00DB4319403B6818683B685A6813469B00C3
:100E3C001344053B00FA03F27B681B680A435A63B0
:100E4C003CE03B685B680C2B1CD87B681B68196BFF
:100E5C003B685A6813469B001344233B1F2202FA3B
:100E6C0003F3DB4319403B6818683B685A68134628
:100E7C009B001344233B00FA03F27B681B680A4374
:100E8C001A631BE07B681B68D96A3B685A68134677
:100E9C009B001344413B1F2202FA03F3DB4319402E
:100EAC003B6818683B685A6813469B001344413BE7
:100EBC0000FA03F27B681B680A43DA623B681B6822
:100ECC00092B1CD97B681B68D9683B681A681346C8
:100EDC005B0013441E3B072202FA03F3DB43194069
:100EEC003B6898683B681A6813465B0013441E3BCA
:100EFC0000FA03F27B681B680A43DA6019E07B682E
:100F0C001B6819693B681A6813465B001344072277
:100F1C0002FA03F3DB4319403B6898683B681A6894
:100F2C0013465B00134400FA03F27B681B680A4308
:100F3C001A613B681B68102B03D03B681B68112B94
:100F4C0032D17B681B681D4A934225D17B681B6894
:100F5C009B6803F40003002B26D17B681B689A68FE
:100F6C007B681B6842F400029A603B681B68102B7C
:100F7C001AD1134B1B68134AA2FB03239A0C13467A
:100F8C009B0013445B00BB6002E0BB68013BBB6091
:100F9C00BB68002BF9D107E07B689B6A43F0200209
:100FAC007B689A620123FB737B68002283F8242000
:100FBC00FB7B18461437BD4680BC704700240140AB
:100FCC000000002083DE1B4380B584B000AF786046
:100FDC000023FB600023BB607B681B689B6803F0ED
:100FEC000103012B40D07B681B689A687B681B68E7
:100FFC0042F001029A601F4B1B681F4AA2FB03239D
:10100C009B0CBB6002E0BB68013BBB60BB68002B68
:10101C00F9D1FFF7E1FCF8601FE0FFF7DDFC0246B9
:10102C00FB68D31A022B18D97B681B689B6803F0EA
:10103C000103012B11D07B689B6A43F010027B6883
:10104C009A627B68DB6A43F001027B68DA627B6838
:10105C00002283F82420012307E07B681B689B682F
:10106C0003F00103012BD8D1002318461037BD46DD
:10107C0080BD00BF0000002083DE1B4380B584B020
:10108C0000AF78600023FB607B681B689B6803F0F3
:10109C000103012B2ED17B681B689A687B681B6847
:1010AC0022F001029A60FFF797FCF8601BE0FFF753
:1010BC0093FC0246FB68D31A022B14D97B681B687D
:1010CC009B6803F00103012B0DD17B689B6A43F0F5
:1010DC0010027B689A627B68DB6A43F001027B68D2
:1010EC00DA62012307E07B681B689B6803F001034D
:1010FC00012BDCD0002318461037BD4680BD80B5CF
:10110C0084B000AF78607B685B6AFB60FB689B6AAD
:10111C0003F05003002B27D1FB689B6A43F4007249
:10112C00FB689A62FB681B689B6803F46023B3F549
:10113C00602F15D1FB681B7B002B11D1FB689B6AC0
:10114C0023F48072FB689A62FB689B6A03F48053F9
:10115C00002B05D1FB689B6A43F00102FB689A6285
:10116C00F868FFF71DFE04E0FB681B6A1B6B7868D0
:10117C00984700BF1037BD4680BD80B584B000AF26
:10118C0078607B685B6AFB60F868FFF712FE00BF53
:10119C001037BD4680BD80B584B000AF78607B68E9
:1011AC005B6AFB60FB689B6A43F04002FB689A62D7
:1011BC00FB68DB6A43F00402FB68DA62F868FFF74D
:1011CC0001FE00BF1037BD4680BD80B584B000AFB6
:1011DC0078607B68002B01D10123EDE07B6893F8EC
:1011EC002030DBB2002B02D17868FFF7A5FA7B68C0
:1011FC001B681A687B681B6842F001021A60FFF7D3
:10120C00EBFBF86012E0FFF7E7FB0246FB68D31A32
:10121C000A2B0BD97B685B6A43F400327B685A62F9
:10122C007B68052283F820200123C5E07B681B68BE
:10123C005B6803F00103002BE5D07B681B681A6820
:10124C007B681B6822F002021A60FFF7C5FBF8608E
:10125C0012E0FFF7C1FB0246FB68D31A0A2B0BD92D
:10126C007B685B6A43F400327B685A627B680522B8
:10127C0083F8202001239FE07B681B685B6803F0E8
:10128C000203002BE5D17B681B7E012B08D17B6808
:10129C001B681A687B681B6842F080021A6007E0C2
:1012AC007B681B681A687B681B6822F080021A60D6
:1012BC007B685B7E012B08D17B681B681A687B6896
:1012CC001B6842F040021A6007E07B681B681A68D2
:1012DC007B681B6822F040021A607B689B7E012BA6
:1012EC0008D17B681B681A687B681B6842F0200277
:1012FC001A6007E07B681B681A687B681B6822F021
:10130C0020021A607B68DB7E012B08D17B681B688E
:10131C001A687B681B6822F010021A6007E07B6871
:10132C001B681A687B681B6842F010021A607B68A5
:10133C001B7F012B08D17B681B681A687B681B68B4
:10134C0042F008021A6007E07B681B681A687B6829
:10135C001B6822F008021A607B685B7F012B08D1A6
:10136C007B681B681A687B681B6842F004021A6071
:10137C0007E07B681B681A687B681B6822F0040214
:10138C001A607B689A687B68DB681A437B681B6908
:10139C001A437B685B6942EA03017B685B685A1EEF
:1013AC007B681B680A43DA617B6800225A627B689F
:1013BC00012283F82020002318461037BD4680BD3B
:1013CC0080B487B000AF786039607B681B687B6144
:1013DC007B6893F82030FB74FB7C012B03D0FB7CE7
:1013EC00022B40F0AA807B69D3F8003243F0010253
:1013FC007B69C3F800223B685B6903F01F03012281
:10140C0002FA03F3FB607B69D3F81C22FB68DB4315
:10141C001A407B69C3F81C223B68DB69002B23D183
:10142C007B69D3F80C22FB68DB431A407B69C3F859
:10143C000C223B68DB6819043B685B689BB23A681A
:10144C00526919437B69483243F832103B689B68F8
:10145C0019043B681B689AB23B685B690A4379695B
:10146C004833DB000B445A603B68DB69012B22D10B
:10147C007B69D3F80C22FB681A437B69C3F80C22F6
:10148C003B681B6819043B685B689BB23A685269FD
:10149C0019437B69483243F832103B689B68190446
:1014AC003B68DB689AB23B685B690A4379694833ED
:1014BC00DB000B445A603B689B69002B09D17B69AC
:1014CC00D3F80422FB68DB431A407B69C3F804227F
:1014DC0007E07B69D3F80422FB681A437B69C3F8E5
:1014EC0004223B681B69002B09D17B69D3F81422B9
:1014FC00FB68DB431A407B69C3F8142207E07B6965
:10150C00D3F81422FB681A437B69C3F814223B6896
:10151C001B6A012B07D17B69D3F81C22FB681A4389
:10152C007B69C3F81C227B69D3F8003223F00102DB
:10153C007B69C3F80022002306E07B685B6A43F4F6
:10154C0080227B685A62012318461C37BD4680BC3A
:10155C00704780B584B000AF78607B6893F820301A
:10156C00DBB2012B2ED17B68022283F820207B6812
:10157C001B681A687B681B6822F001021A60FFF76F
:10158C002BFAF86012E0FFF727FA0246FB68D31A31
:10159C000A2B0BD97B685B6A43F400327B685A6276
:1015AC007B68052283F82020012312E07B681B68EE
:1015BC005B6803F00103002BE5D17B6800225A62C3
:1015CC00002306E07B685B6A43F400227B685A6266
:1015DC00012318461037BD4680BD80B489B000AFDA
:1015EC00F860B9607A603B60FB6893F82030FB7759
:1015FC00FB681B689B68BB61FB7F012B03D0FB7FE7
:10160C00022B40F0AD80BB6903F08063002B0AD144
:10161C00BB6903F00063002B05D1BB6903F0805359
:10162C00002B00F09580BB691B0E03F003037B615C
:10163C0001227B699A403B681A60BB689B68002B4F
:10164C000DD1BB681B685A05BB68DB68F968096873
:10165C001A437B6918331B010B441A600FE0BB68FB
:10166C005B68DA00BB689B681A43BB68DB68F96887
:10167C0009681A437B6918331B010B441A60FB6819
:10168C001968BB681A697B6918331B010B44043356
:10169C001A60BB681B7D012B11D1FB681A687B6932
:1016AC0018331B01134404331B68FA68116843F4A4
:1016BC0080727B6918331B010B4404331A607B68FE
:1016CC0007331B781A067B6806331B781B041A43F6
:1016DC007B6805331B781B0213437A68043212783B
:1016EC001046FA68116843EA00027B691B010B443F
:1016FC0003F5C6731A607B6803331B781A067B6884
:10170C0002331B781B041A437B6801331B781B02C2
:10171C0013437A6812781046FA68116843EA00029B
:10172C007B691B010B4403F5C4731A60FB681A68D0
:10173C007B6918331B0113441B68FA68116843F06A
:10174C0001027B6918331B010B441A6000230EE065
:10175C00FB685B6A43F40012FB685A62012306E0E3
:10176C00FB685B6A43F48022FB685A6201231846CB
:10177C002437BD4680BC704780B487B000AFF8609A
:10178C00B9607A603B60FB6893F82030FB75FB7D99
:10179C00012B03D0FB7D022B40F00381BB68002B97
:1017AC000ED1FB681B68DB6803F00303002B16D11A
:1017BC00FB685B6A43F40012FB685A620123F7E092
:1017CC00FB681B681B6903F00303002B07D1FB6844
:1017DC005B6A43F40012FB685A620123E8E0FB6881
:1017EC001A68BB681B331B0113441B6803F004020B
:1017FC007B689A607B689B68002B0CD1FB681A682D
:10180C00BB681B331B0113441B685B0DC3F30A023B
:10181C007B681A600BE0FB681A68BB681B331B0102
:10182C0013441B68DB0823F060427B685A60FB683A
:10183C001A68BB681B331B0113441B6803F00202BC
:10184C007B68DA60FB681A68BB681B331B011344A6
:10185C0004331B6803F00803002B03D07B680822B9
:10186C001A610BE0FB681A68BB681B331B0113443D
:10187C0004331B6803F00F027B681A61FB681A685B
:10188C00BB681B331B01134404331B681B0ADAB2FD
:10189C007B689A61FB681A68BB681B331B01134495
:1018AC0004331B681B0C9AB27B685A61FB681A687C
:1018BC00BB681B01134403F5DC731B68DAB23B688D
:1018CC001A70FB681A68BB681B01134403F5DC73C0
:1018DC001B681A0A3B680133D2B21A70FB681A688B
:1018EC00BB681B01134403F5DC731B681A0C3B68C3
:1018FC000233D2B21A70FB681A68BB681B0113441E
:10190C0003F5DC731B681A0E3B680333D2B21A70F2
:10191C00FB681A68BB681B01134403F5DE731A6875
:10192C003B680433D2B21A70FB681A68BB681B019F
:10193C00134403F5DE731B681A0A3B680533D2B2F5
:10194C001A70FB681A68BB681B01134403F5DE733D
:10195C001B681A0C3B680633D2B21A70FB681A6803
:10196C00BB681B01134403F5DE731B681A0E3B683E
:10197C000733D2B21A70BB68002B08D1FB681B6806
:10198C00DA68FB681B6842F02002DA6007E0FB684B
:10199C001B681A69FB681B6842F020021A6100235D
:1019AC0006E0FB685B6A43F48022FB685A62012301
:1019BC0018461C37BD4680BC704780B485B000AF5C
:1019CC00786039607B6893F82030FB73FB7B012BCC
:1019DC0002D0FB7B022B09D17B681B6859697B68A1
:1019EC001B683A680A435A61002306E07B685B6A0D
:1019FC0043F480227B685A62012318461437BD4693
:101A0C0080BC704780B58AB000AF786000237B62E1
:101A1C007B681B685B693B627B681B685B68FB616E
:101A2C007B681B689B68BB617B681B68DB687B61A0
:101A3C007B681B681B693B617B681B689B69FB604F
:101A4C003B6A03F00103002B7CD0BB6903F001035C
:101A5C00002B23D07B681B6801229A60BB6903F0C2
:101A6C000203002B03D0786800F083F916E0BB6901
:101A7C0003F00403002B04D07B6A43F400637B6205
:101A8C000CE0BB6903F00803002B04D07B6A43F421
:101A9C0080537B6202E0786800F086F9BB6903F43E
:101AAC008073002B24D07B681B684FF480729A6083
:101ABC00BB6903F40073002B03D0786800F062F963
:101ACC0016E0BB6903F48063002B04D07B6A43F4FB
:101ADC0000537B620CE0BB6903F40063002B04D061
:101AEC007B6A43F480437B6202E0786800F065F91E
:101AFC00BB6903F48033002B24D07B681B684FF444
:101B0C0080329A60BB6903F40033002B03D07868F1
:101B1C0000F041F916E0BB6903F48023002B04D0DC
:101B2C007B6A43F400437B620CE0BB6903F4002343
:101B3C00002B04D07B6A43F480337B6202E078682C
:101B4C0000F044F93B6A03F00803002B0CD07B69CE
:101B5C0003F01003002B07D07B6A43F400737B6205
:101B6C007B681B681022DA603B6A03F00403002BCD
:101B7C000BD07B6903F00803002B06D07B681B6835
:101B8C000822DA60786800F02AF93B6A03F0020355
:101B9C00002B09D07B681B68DB6803F00303002B68
:101BAC0002D07868FEF7CCFA3B6A03F04003002BB6
:101BBC000CD03B6903F01003002B07D07B6A43F475
:101BCC0080637B627B681B6810221A613B6A03F09E
:101BDC002003002B0BD03B6903F00803002B06D02D
:101BEC007B681B6808221A61786800F00AF93B6A66
:101BFC0003F01003002B09D07B681B681B6903F0F2
:101C0C000303002B02D0786800F0F2F83B6A03F46F
:101C1C000033002B0BD0FB6903F01003002B06D014
:101C2C007B681B6810225A60786800F0F3F83B6AF6
:101C3C0003F48033002B0BD0FB6903F00803002B5B
:101C4C0006D07B681B6808225A60786800F0EBF8B5
:101C5C003B6A03F40043002B7BD0FB6903F00403C5
:101C6C00002B72D03B6A03F48073002B08D0FB6806
:101C7C0003F00103002B03D07B6A43F001037B626A
:101C8C003B6A03F40073002B08D0FB6803F00203DB
:101C9C00002B03D07B6A43F002037B623B6A03F4A4
:101CAC008063002B08D0FB6803F00403002B03D0E7
:101CBC007B6A43F004037B623B6A03F40063002BF2
:101CCC0043D0FB6803F07003002B3ED0FB6803F09D
:101CDC007003602B2BD0602B2ED8502B22D0502B86
:101CEC002AD8402B19D0402B26D8302B10D0302B93
:101CFC0022D8102B02D0202B05D01DE07B6A43F09C
:101D0C0008037B6219E07B6A43F010037B6214E0EA
:101D1C007B6A43F020037B620FE07B6A43F0400355
:101D2C007B620AE07B6A43F080037B6205E07B6A9E
:101D3C0043F480737B6200E000BF7B681B689A6988
:101D4C007B681B6822F070029A617B681B68042216
:101D5C005A607B6A002B08D07B685A6A7B6A1A43EC
:101D6C007B685A62786800F067F800BF2837BD4678
:101D7C0080BD80B483B000AF786000BF0C37BD4627
:101D8C0080BC704780B483B000AF786000BF0C3764
:101D9C00BD4680BC704780B483B000AF786000BF94
:101DAC000C37BD4680BC704780B483B000AF786000
:101DBC0000BF0C37BD4680BC704780B483B000AF09
:101DCC00786000BF0C37BD4680BC704780B483B0D0
:101DDC0000AF786000BF0C37BD4680BC704780B444
:101DEC0083B000AF786000BF0C37BD4680BC704735
:101DFC0080B483B000AF786000BF0C37BD4680BCA8
:101E0C00704780B483B000AF786000BF0C37BD461C
:101E1C0080BC704780B483B000AF786000BF0C37D3
:101E2C00BD4680BC704780B483B000AF786000BF03
:101E3C000C37BD4680BC704780B483B000AF78606F
:101E4C0000BF0C37BD4680BC7047000080B485B025
:101E5C0000AF78607B6803F00703FB600C4BDB681A
:101E6C00BB60BA684FF6FF031340BB60FB681A02F5
:101E7C00BB68134343F0BF6343F40033BB60044AB5
:101E8C00BB68D36000BF1437BD4680BC704700BF31
:101E9C0000ED00E080B400AF044BDB681B0A03F0DC
:101EAC0007031846BD4680BC704700BF00ED00E03C
:101EBC0080B483B000AF0346FB7197F90730002B59
:101ECC000BDBFB7903F01F02064997F907305B091E
:101EDC00012000FA02F241F8232000BF0C37BD4666
:101EEC0080BC704700E100E080B483B000AF0346D3
:101EFC003960FB7197F90730002B0ADB3B68DAB2CB
:101F0C000C4997F907301201D2B20B4483F8002325
:101F1C000AE03B68DAB20849FB7903F00F03043B93
:101F2C001201D2B20B441A7600BF0C37BD4680BCEE
:101F3C00704700BF00E100E000ED00E080B489B024
:101F4C0000AFF860B9607A60FB6803F00703FB61CF
:101F5C00FB69C3F10703042B28BF0423BB61FB6996
:101F6C000433062B02D9FB69033B00E000237B61A1
:101F7C004FF0FF32BB6902FA03F3DA43BB681A4035
:101F8C007B699A404FF0FF317B6901FA03F3D94327
:101F9C007B680B40134318462437BD4680BC704702
:101FAC0080B582B000AF78607B68013BB3F1807F75
:101FBC0001D301230FE00A4A7B68013B53600F21D8
:101FCC004FF0FF30FFF790FF054B00229A60044B57
:101FDC0007221A60002318460837BD4680BD00BF93
:101FEC0010E000E080B582B000AF78607868FFF751
:101FFC002DFF00BF0837BD4680BD80B586B000AF51
:10200C000346B9607A60FB7300237B61FFF742FFE4
:10201C0078617A68B9687869FFF790FF024697F99A
:10202C000F3011461846FFF75FFF00BF1837BD464B
:10203C0080BD80B582B000AF0346FB7197F90730C5
:10204C001846FFF735FF00BF0837BD4680BD80B589
:10205C0082B000AF78607868FFF7A2FF034618469D
:10206C000837BD4680BD000080B485B000AF7860F5
:10207C000023FB607B68002B01D1012343E07B68CC
:10208C001B681A46224B1344224AA2FB03231B094A
:10209C009A007B681A647B681F4ADA637B680222A9
:1020AC0083F821207B681B681B68FB60FB6823F4AA
:1020BC007F5323F03003FB607B685A687B689B6816
:1020CC001A437B68DB681A437B681B691A437B687D
:1020DC005B691A437B689B691A437B68DB69134312
:1020EC00FA681343FB607B681B68FA681A607B68AC
:1020FC0000229A637B68012283F821207B680022EE
:10210C0083F82020002318461437BD4680BC704746
:10211C00F8FFFDBFCDCCCCCC0000024080B586B022
:10212C0000AFF860B9607A603B600023FB75FB6818
:10213C0093F82030012B01D102234BE0FB680122E4
:10214C0083F82020FB6893F82130DBB2012B3AD1C5
:10215C00FB68022283F82120FB6800229A63FB684B
:10216C001B681A68FB681B6822F001021A603B6846
:10217C007A68B968F86800F037F9FB68DB6A002BFD
:10218C0008D0FB681B681A68FB681B6842F00E02DB
:10219C001A600FE0FB681B681A68FB681B6822F06A
:1021AC0004021A60FB681B681A68FB681B6842F023
:1021BC000A021A60FB681B681A68FB681B6842F00D
:1021CC0001021A6005E0FB68002283F8202002233C
:1021DC00FB75FB7D18461837BD4680BD80B584B0B5
:1021EC0000AF78607B68DB6B1B68FB607B681B68EF
:1021FC001B68BB607B681B6C04229A40FB68134015
:10220C00002B4FD0BB6803F00403002B4AD07B6833
:10221C001B681B6803F02003002B07D17B681B682D
:10222C001A687B681B6822F004021A607B681B68C2
:10223C00664A934229D07B681B68654A934222D038
:10224C007B681B68634A93421AD07B681B68624A9E
:10225C00934212D07B681B68604A93420AD07B6819
:10226C001B685F4A934202D14FF480030EE04FF09B
:10227C0080630BE04FF4802308E04FF4804305E0CB
:10228C004FF4806302E0402300E00423554A53607E
:10229C007B68DB6A002B00F094807B68DB6A7868D3
:1022AC0098478EE07B681B6C02229A40FB681340B7
:1022BC00002B56D0BB6803F00203002B51D07B6877
:1022CC001B681B6803F02003002B0BD17B681B6879
:1022DC001A687B681B6822F00A021A607B6801226C
:1022EC0083F821207B681B68384A934229D07B688D
:1022FC001B68374A934222D07B681B68354A93424D
:10230C001AD07B681B68344A934212D07B681B68D6
:10231C00324A93420AD07B681B68314A934202D1FD
:10232C004FF400130EE04FF000730BE04FF400334A
:10233C0008E04FF4005305E04FF4007302E0202353
:10234C0000E00223274A53607B68002283F8202098
:10235C007B689B6A002B34D07B689B6A78689847B3
:10236C002FE07B681B6C08229A40FB681340002B03
:10237C0028D0BB6803F00803002B23D07B681B68B4
:10238C001A687B681B6822F00E021A607B681A6C54
:10239C007B68DB6B012101FA02F25A607B68012237
:1023AC009A637B68012283F821207B68002283F8E2
:1023BC0020207B681B6B002B04D07B681B6B786820
:1023CC00984700BF00BF1037BD4680BD08000240D3
:1023DC001C00024030000240440002405800024001
:1023EC006C0002400000024080B485B000AFF86081
:1023FC00B9607A603B60FB681A6CFB68DB6B01218F
:10240C0001FA02F25A60FB681B683A685A60FB6872
:10241C005B68102B08D1FB681B687A689A60FB68B4
:10242C001B68BA68DA6007E0FB681B68BA689A60D8
:10243C00FB681B687A68DA6000BF1437BD4680BC45
:10244C007047000080B48BB000AF78603960002317
:10245C007B6200233B6269E101227B6A02FA03F38F
:10246C00FB613B681B68FA691340BB61BA69FB6985
:10247C009A4240F058813B685B689A4A93425ED01E
:10248C00984A934275D8984A934258D0964A9342A8
:10249C006FD8964A934252D0944A934269D8944A40
:1024AC0093424CD0924A934263D8924A934246D07C
:1024BC00904A93425DD8122B2AD8122B59D801A2DC
:1024CC0052F823F04B250008252500083725000875
:1024DC00792500087F2500087F2500087F25000846
:1024EC007F2500087F2500087F2500087F25000830
:1024FC007F2500087F2500087F2500087F25000820
:10250C007F2500087F2500082D250008412500089F
:10251C00794A934213D02CE03B68DB683B6229E09C
:10252C003B68DB6804333B6224E03B68DB680833C0
:10253C003B621FE03B68DB680C333B621AE03B6894
:10254C009B68002B02D104233B6213E03B689B6821
:10255C00012B05D108233B627B68FA691A6109E0FB
:10256C0008233B627B68FA695A6103E000233B62F3
:10257C0000E000BFBB69FF2B01D87B6801E07B68E2
:10258C0004337B61BB69FF2B02D87B6A9B0002E0A2
:10259C007B6A083B9B003B617B691A680F213B6996
:1025AC0001FA03F3DB431A40396A3B6901FA03F37E
:1025BC001A437B691A603B685B6803F08053002BFD
:1025CC0000F0B1804D4B9B694C4A43F00103936181
:1025DC004A4B9B6903F00103BB60BB68484A7B6AAA
:1025EC009B08023352F82330FB607B6A03F0030331
:1025FC009B000F2202FA03F3DB43FA681340FB60E3
:10260C007B68404A934213D07B683F4A93420DD07B
:10261C007B683E4A934207D07B683D4A934201D186
:10262C00032306E0042304E0022302E0012300E07C
:10263C0000237A6A02F0030292009340FA68134373
:10264C00FB602F497B6A9B080233FA6841F8232010
:10265C003B685B6803F48013002B06D02D4B9A6803
:10266C002C49BB6913438B6006E02A4B9A68BB6903
:10267C00DB43284913408B603B685B6803F4001311
:10268C00002B06D0234BDA682249BB691343CB607D
:10269C0006E0204BDA68BB69DB431E491340CB6074
:1026AC003B685B6803F40033002B06D0194B5A6867
:1026BC001849BB6913434B6006E0164B5A68BB695B
:1026CC00DB43144913404B603B685B6803F4803375
:1026DC00002B21D00F4B1A680E49BB6913430B60BA
:1026EC0021E000BF00003210000031100000221069
:1026FC000000211000001210000011100010024008
:10270C000000014000080140000C01400010014095
:10271C0000140140000401400B4B1A68BB69DB43F9
:10272C00094913400B607B6A01337B623B681A6872
:10273C007B6A22FA03F3002B7FF48EAE00BF00BF3E
:10274C002C37BD4680BC70470004014080B483B078
:10275C0000AF78600B467B8013467B707B78002B38
:10276C0003D07A887B681A6103E07B881A047B6843
:10277C001A6100BF0C37BD4680BC704780B485B071
:10278C0000AF78600B467B807B68DB68FB607A88E7
:10279C00FB6813401A04FB68D9437B880B401A432F
:1027AC007B681A6100BF1437BD4680BC70470000BF
:1027BC0080B582B000AF0346FB80084B5A69FB889A
:1027CC001340002B06D0054AFB885361FB88184642
:1027DC0000F006F800BF0837BD4680BD000401407C
:1027EC0080B483B000AF0346FB8000BF0C37BD46FE
:1027FC0080BC704780B586B000AF78607B68002BDA
:10280C0001D1012372E27B681B6803F00103002BEA
:10281C0000F08780924B5B6803F00C03042B0CD008
:10282C008F4B5B6803F00C03082B12D18C4B5B684D
:10283C0003F48033B3F5803F0BD1894B1B6803F451
:10284C000033002B6CD07B685B68002B68D10123B4
:10285C004CE27B685B68B3F5803F06D1804B1B680C
:10286C007F4A43F4803313602EE07B685B68002B57
:10287C000CD17B4B1B687A4A23F480331360784B62
:10288C001B68774A23F4802313601DE07B685B6828
:10289C00B3F5A02F0CD1724B1B68714A43F4802303
:1028AC0013606F4B1B686E4A43F4803313600BE06C
:1028BC006B4B1B686A4A23F480331360684B1B68AC
:1028CC00674A23F4802313607B685B68002B13D06A
:1028DC00FEF782F8386108E0FEF77EF802463B69A5
:1028EC00D31A642B01D9032300E25D4B1B6803F45C
:1028FC000033002BF0D014E0FEF76EF8386108E0DE
:10290C00FEF76AF802463B69D31A642B01D90323FC
:10291C00ECE1534B1B6803F40033002BF0D100E0C7
:10292C0000BF7B681B6803F00203002B63D04C4B89
:10293C005B6803F00C03002B0BD0494B5B6803F076
:10294C000C03082B1CD1464B5B6803F48033002B23
:10295C0016D1434B1B6803F00203002B05D07B6898
:10296C001B69012B01D00123C0E13D4B1B6823F0F7
:10297C00F8027B685B69DB00394913430B603AE072
:10298C007B681B69002B20D0364B01221A60FEF7A6
:10299C0023F8386108E0FEF71FF802463B69D31AAA
:1029AC00022B01D90323A1E12D4B1B6803F0020379
:1029BC00002BF0D02A4B1B6823F0F8027B685B6974
:1029CC00DB00274913430B6015E0264B00221A60ED
:1029DC00FEF702F8386108E0FDF7FEFF02463B699E
:1029EC00D31A022B01D9032380E11D4B1B6803F082
:1029FC000203002BF0D17B681B6803F00803002B4B
:102A0C003AD07B689B69002B19D0174B01221A60B6
:102A1C00FDF7E2FF386108E0FDF7DEFF02463B6997
:102A2C00D31A022B01D9032360E10D4B5B6A03F02F
:102A3C000203002BF0D0012000F09CFA1CE00A4BA2
:102A4C0000221A60FDF7C8FF38610FE0FDF7C4FFE4
:102A5C0002463B69D31A022B08D9032346E100BF77
:102A6C00001002400000424280044242924B5B6ADA
:102A7C0003F00203002BE9D17B681B6803F004030D
:102A8C00002B00F0A6800023FB758B4BDB6903F059
:102A9C008053002B0DD1884BDB69874A43F0805360
:102AAC00D361854BDB6903F08053BB60BB680123AA
:102ABC00FB75824B1B6803F48073002B18D17F4B82
:102ACC001B687E4A43F480731360FDF785FF386101
:102ADC0008E0FDF781FF02463B69D31A642B01D94C
:102AEC00032303E1754B1B6803F48073002BF0D0B8
:102AFC007B68DB68012B06D16F4B1B6A6E4A43F077
:102B0C00010313622DE07B68DB68002B0CD16A4B50
:102B1C001B6A694A23F001031362674B1B6A664AFE
:102B2C0023F0040313621CE07B68DB68052B0CD1DB
:102B3C00614B1B6A604A43F0040313625E4B1B6AD1
:102B4C005D4A43F0010313620BE05B4B1B6A5A4A6C
:102B5C0023F001031362584B1B6A574A23F00403FA
:102B6C0013627B68DB68002B15D0FDF735FF3861ED
:102B7C000AE0FDF731FF02463B69D31A41F2883275
:102B8C00934201D90323B1E04B4B1B6A03F00203C0
:102B9C00002BEED014E0FDF71FFF38610AE0FDF7C3
:102BAC001BFF02463B69D31A41F28832934201D98A
:102BBC0003239BE0404B1B6A03F00203002BEED176
:102BCC00FB7D012B05D13C4BDB693B4A23F0805349
:102BDC00D3617B68DB69002B00F08780364B5B6828
:102BEC0003F00C03082B61D07B68DB69022B46D108
:102BFC00334B00221A60FDF7EFFE386108E0FDF759
:102C0C00EBFE02463B69D31A022B01D903236DE07C
:102C1C00294B1B6803F00073002BF0D17B681B6AF7
:102C2C00B3F5803F08D1244B5B6823F400327B68FA
:102C3C009B68214913434B601F4B5B6823F4741250
:102C4C007B68196A7B685B6A0B431B4913434B60B7
:102C5C001B4B01221A60FDF7BFFE386108E0FDF73F
:102C6C00BBFE02463B69D31A022B01D903233DE07C
:102C7C00114B1B6803F00073002BF0D035E0104BA8
:102C8C0000221A60FDF7A8FE386108E0FDF7A4FEEB
:102C9C0002463B69D31A022B01D9032326E0064BCB
:102CAC001B6803F00073002BF0D11EE07B68DB691E
:102CBC00012B07D1012319E00010024000700040E5
:102CCC00600042420B4B5B68FB60FB6803F4803294
:102CDC007B681B6A9A4206D1FB6803F470127B680E
:102CEC005B6A9A4201D0012300E000231846183792
:102CFC00BD4680BD0010024080B584B000AF786046
:102D0C0039607B68002B01D10123D0E06A4B1B6832
:102D1C0003F007033A689A4210D9674B1B6823F0FB
:102D2C00070265493B6813430B60634B1B6803F058
:102D3C0007033A689A4201D00123B8E07B681B680C
:102D4C0003F00203002B20D07B681B6803F0040304
:102D5C00002B05D0594B5B68584A43F4E063536031
:102D6C007B681B6803F00803002B05D0534B5B6892
:102D7C00524A43F460535360504B5B6823F0F002AB
:102D8C007B689B684D4913434B607B681B6803F061
:102D9C000103002B40D07B685B68012B07D1474BAC
:102DAC001B6803F40033002B15D101237FE07B68F3
:102DBC005B68022B07D1414B1B6803F00073002B9F
:102DCC0009D1012373E03D4B1B6803F00203002B78
:102DDC0001D101236BE0394B5B6823F003027B6864
:102DEC005B68364913434B60FDF7F6FDF8600AE06B
:102DFC00FDF7F2FD0246FB68D31A41F2883293428A
:102E0C0001D9032353E02D4B5B6803F00C027B6864
:102E1C005B689B009A42EBD1274B1B6803F00703BE
:102E2C003A689A4210D2244B1B6823F007022249BD
:102E3C003B6813430B60204B1B6803F007033A6895
:102E4C009A4201D0012332E07B681B6803F0040333
:102E5C00002B08D0194B5B6823F4E0627B68DB68BD
:102E6C00164913434B607B681B6803F00803002B67
:102E7C0009D0124B5B6823F460527B681B69DB0042
:102E8C000E4913434B6000F021F802460B4B5B6874
:102E9C001B0903F00F030A49CB5C22FA03F3094A1E
:102EAC001360094B1B681846FDF754FD00231846A8
:102EBC001037BD4680BD00BF00200240001002400C
:102ECC0098310008000000200400002080B487B076
:102EDC0000AF0023FB600023BB6000237B61002359
:102EEC007B6000233B611E4B5B68FB60FB6803F05F
:102EFC000C03042B02D0082B03D027E0194B3B61A9
:102F0C0027E0FB689B0C03F00F03174AD35C7B6034
:102F1C00FB6803F48033002B10D0114B5B685B0C07
:102F2C0003F00103114AD35CBB607B680D4A03FBC1
:102F3C0002F2BB68B2FBF3F37B6104E07B680C4AE2
:102F4C0002FB03F37B617B693B6102E0054B3B6158
:102F5C0000BF3B6918461C37BD4680BC704700BF9C
:102F6C000010024000127A00A8310008B8310008A5
:102F7C0000093D0080B485B000AF78600A4B1B6837
:102F8C000A4AA2FB03235B0A7A6802FB03F3FB6089
:102F9C0000BFFB685A1EFA60002BF9D100BF00BFBE
:102FAC001437BD4680BC704700000020D34D621022
:102FBC0080B586B000AF786000233B610023FB60D6
:102FCC007B681B6803F00103002B7DD00023FB758D
:102FDC004F4BDB6903F08053002B0DD14C4BDB695D
:102FEC004B4A43F08053D361494BDB6903F0805368
:102FFC00BB60BB680123FB75464B1B6803F48073F5
:10300C00002B18D1434B1B68424A43F48073136066
:10301C00FDF7E2FC386108E0FDF7DEFC02463B6997
:10302C00D31A642B01D903236DE03A4B1B6803F4CC
:10303C008073002BF0D0364B1B6A03F44073FB609B
:10304C00FB68002B2ED07B685B6803F44073FA6836
:10305C009A4227D02E4B1B6A23F44073FB602E4BF5
:10306C0001221A602C4B00221A60294AFB68136259
:10307C00FB6803F00103002B14D0FDF7ADFC3861A5
:10308C000AE0FDF7A9FC02463B69D31A41F28832EB
:10309C00934201D9032336E01D4B1B6A03F0020354
:1030AC00002BEED01A4B1B6A23F440727B685B68D2
:1030BC00174913430B62FB7D012B05D1144BDB69C4
:1030CC00134A23F08053D3617B681B6803F002031F
:1030DC00002B08D00E4B5B6823F440427B689B6846
:1030EC000B4913434B607B681B6803F01003002BE8
:1030FC0008D0074B5B6823F480027B68DB680449CB
:10310C0013434B60002318461837BD4680BD00BFE3
:10311C00001002400070004040044242034602444A
:10312C00934200D1704703F8011BF9E770B50026F4
:10313C000C4D0D4C641BA410A64209D100F01AF8DA
:10314C0000260A4D0A4C641BA410A64205D170BD82
:10315C0055F8043B98470136EEE755F8043B984781
:10316C000136F2E7BC310008BC310008BC31000864
:10317C00C0310008F8B500BFF8BC08BC9E467047CB
:0C318C00F8B500BFF8BC08BC9E467047B8
:1031980000000000000000000102030406070809FF
:1031A80002030405060708090A0B0C0D0E0F101080
:0431B8000102000010
:0431BC0031010008D5
:0431C0000D010008F5
:0C31C4000024F4001000000001000000D6
:04000005080008E9FE
:00000001FF
